:100000000C945C000C946E000C946E000C946E00CA
:100010000C946E000C946E000C946E000C946E00A8
:100020000C946E000C946E000C946E000C946E0098
:100030000C946E000C946E000C946E000C946E0088
:100040000C94F0000C946E000C946E000C946E00F6
:100050000C946E000C946E000C946E000C946E0068
:100060000C946E000C946E00000000080002010069
:100070000003040700000000000000000000000072
:10008000250028002B0000000000240027002A0083
:10009000040404040404040402020202020203032E
:1000A0000303030301020408102040800102040836
:1000B000102001020408102011241FBECFEFD8E049
:1000C000DEBFCDBF21E0A0E0B1E001C01D92AD30A8
:1000D000B207E1F70E943A010C94B1010C940000C0
:1000E00090E0FC01EC55FF4F249180579F4FFC019D
:1000F0008491882399F090E0880F991FFC01EA57BA
:10010000FF4FA591B491FC01E458FF4F8591949164
:100110008FB7F894EC91E22BEC938FBF089590E0A9
:10012000FC01E859FF4F2491FC01EC55FF4F34913D
:10013000FC01E057FF4FE491EE23C9F0222339F090
:10014000233001F1A8F4213019F1223029F1F0E037
:10015000EE0FFF1FE458FF4FA591B4918FB7F894AD
:10016000EC91611126C030953E233C938FBF0895DA
:100170002730A9F02830C9F0243049F78091800059
:100180008F7D03C0809180008F7780938000DFCFC8
:1001900084B58F7784BDDBCF84B58F7DFBCF809115
:1001A000B0008F778093B000D2CF8091B0008F7D68
:1001B000F9CF3E2BDACF8E3008F08E5087708064F6
:1001C00080937C0080917A00806480937A00809193
:1001D0007A0086FDFCCF8091780090917900089597
:1001E0001F920F920FB60F9211242F933F938F936C
:1001F0009F93AF93BF938091090190910A01A091C1
:100200000B01B0910C013091080123E0230F2D3731
:1002100058F50196A11DB11D209308018093090195
:1002200090930A01A0930B01B0930C0180910401FB
:1002300090910501A0910601B09107010196A11DC1
:10024000B11D8093040190930501A0930601B09322
:100250000701BF91AF919F918F913F912F910F9087
:100260000FBE0F901F90189526E8230F0296A11D30
:10027000B11DD2CF789484B5826084BD84B581608D
:1002800084BD85B5826085BD85B5816085BD809161
:100290006E00816080936E001092810080918100D9
:1002A00082608093810080918100816080938100D1
:1002B000809180008160809380008091B100846093
:1002C0008093B1008091B00081608093B0008091F4
:1002D0007A00846080937A0080917A0082608093B3
:1002E0007A0080917A00816080937A0080917A0010
:1002F000806880937A001092C10082E00E947000B2
:1003000083E00E94700000E010E08EE00E94DB00BD
:10031000EC0190930301809302018FE00E94DB00C7
:10032000909301018093000160E0CD3DD10524F45C
:100330008530910574F061E082E00E948F0060E0FA
:1003400083E00E948F0001151105F9F20E94000060
:10035000DCCF0297C4F760E082E00E948F0061E08A
:06036000EFCFF894FFCF7F
:00000001FF
